{
  "contractName": "Item",
  "abi": [
    {
      "inputs": [
        {
          "internalType": "contract ItemManager",
          "name": "_parentContract",
          "type": "address"
        },
        {
          "internalType": "uint256",
          "name": "_priceInWei",
          "type": "uint256"
        },
        {
          "internalType": "uint256",
          "name": "_index",
          "type": "uint256"
        }
      ],
      "stateMutability": "nonpayable",
      "type": "constructor"
    },
    {
      "stateMutability": "nonpayable",
      "type": "fallback"
    },
    {
      "inputs": [],
      "name": "index",
      "outputs": [
        {
          "internalType": "uint256",
          "name": "",
          "type": "uint256"
        }
      ],
      "stateMutability": "view",
      "type": "function"
    },
    {
      "inputs": [],
      "name": "paidWei",
      "outputs": [
        {
          "internalType": "uint256",
          "name": "",
          "type": "uint256"
        }
      ],
      "stateMutability": "view",
      "type": "function"
    },
    {
      "inputs": [],
      "name": "priceInWei",
      "outputs": [
        {
          "internalType": "uint256",
          "name": "",
          "type": "uint256"
        }
      ],
      "stateMutability": "view",
      "type": "function"
    },
    {
      "stateMutability": "payable",
      "type": "receive"
    }
  ],
  "bytecode": "0x608060405234801561001057600080fd5b5060405161069e38038061069e83398181016040528101906100329190610134565b816000819055508060028190555082600360006101000a81548173ffffffffffffffffffffffffffffffffffffffff021916908373ffffffffffffffffffffffffffffffffffffffff160217905550505050610187565b600080fd5b600073ffffffffffffffffffffffffffffffffffffffff82169050919050565b60006100b98261008e565b9050919050565b60006100cb826100ae565b9050919050565b6100db816100c0565b81146100e657600080fd5b50565b6000815190506100f8816100d2565b92915050565b6000819050919050565b610111816100fe565b811461011c57600080fd5b50565b60008151905061012e81610108565b92915050565b60008060006060848603121561014d5761014c610089565b5b600061015b868287016100e9565b935050602061016c8682870161011f565b925050604061017d8682870161011f565b9150509250925092565b610508806101966000396000f3fe6080604052600436106100385760003560e01c80632986c0e51461020c5780633c8da5881461023757806383d12eef14610262576101fd565b366101fd57600060015414610082576040517f08c379a0000000000000000000000000000000000000000000000000000000008152600401610079906102fc565b60405180910390fd5b34600160008282546100949190610355565b925050819055506000600360009054906101000a900473ffffffffffffffffffffffffffffffffffffffff1673ffffffffffffffffffffffffffffffffffffffff16346002546040516024016100ea91906103ba565b6040516020818303038152906040527f800fb83f000000000000000000000000000000000000000000000000000000007bffffffffffffffffffffffffffffffffffffffffffffffffffffffff19166020820180517bffffffffffffffffffffffffffffffffffffffffffffffffffffffff8381831617835250505050604051610174919061044f565b60006040518083038185875af1925050503d80600081146101b1576040519150601f19603f3d011682016040523d82523d6000602084013e6101b6565b606091505b50509050806101fa576040517f08c379a00000000000000000000000000000000000000000000000000000000081526004016101f1906104b2565b60405180910390fd5b50005b34801561020957600080fd5b50005b34801561021857600080fd5b5061022161028d565b60405161022e91906103ba565b60405180910390f35b34801561024357600080fd5b5061024c610293565b60405161025991906103ba565b60405180910390f35b34801561026e57600080fd5b50610277610299565b60405161028491906103ba565b60405180910390f35b60025481565b60005481565b60015481565b600082825260208201905092915050565b7f4974656d20697320616c72656164792070616964210000000000000000000000600082015250565b60006102e660158361029f565b91506102f1826102b0565b602082019050919050565b60006020820190508181036000830152610315816102d9565b9050919050565b6000819050919050565b7f4e487b7100000000000000000000000000000000000000000000000000000000600052601160045260246000fd5b60006103608261031c565b915061036b8361031c565b9250827fffffffffffffffffffffffffffffffffffffffffffffffffffffffffffffffff038211156103a05761039f610326565b5b828201905092915050565b6103b48161031c565b82525050565b60006020820190506103cf60008301846103ab565b92915050565b600081519050919050565b600081905092915050565b60005b838110156104095780820151818401526020810190506103ee565b83811115610418576000848401525b50505050565b6000610429826103d5565b61043381856103e0565b93506104438185602086016103eb565b80840191505092915050565b600061045b828461041e565b915081905092915050565b7f44656c697665727920646964206e6f7420776f726b0000000000000000000000600082015250565b600061049c60158361029f565b91506104a782610466565b602082019050919050565b600060208201905081810360008301526104cb8161048f565b905091905056fea26469706673582212209ed9bf1d3aabb9d084a54b18bd048b769f0469398b7c18ac40049dac845cc45764736f6c634300080b0033",
  "immutableReferences": {},
  "source": "// SPDX-License-Identifier: GPL-3.0\n\npragma solidity ^0.8.11;\n\nimport \"./ItemManager.sol\";\n\ncontract Item {\n    uint public priceInWei;\n    uint public paidWei;\n    uint public index;\n\n    ItemManager parentContract;\n\n    constructor(ItemManager _parentContract, uint _priceInWei, uint _index) public {\n        priceInWei = _priceInWei;\n        index = _index;\n        parentContract = _parentContract;\n    }\n\n    receive() external payable {\n        //require(msg.value == priceInWei, \"We don't support partial payments\");\n        require(paidWei == 0, \"Item is already paid!\");\n        paidWei += msg.value;\n\n        (bool success, ) = address(parentContract).call{value:msg.value}(abi.encodeWithSignature(\"triggerPayment(uint256)\", index));\n\n        require(success, \"Delivery did not work\");\n    }\n\n    fallback () external {\n\n    }\n\n}\n",
  "sourcePath": "/Users/paultouchton/workspaces/s06-eventtrigger/contracts/Item.sol",
  "compiler": {
    "name": "solc",
    "version": "0.8.11+commit.d7f03943.Emscripten.clang"
  },
  "schemaVersion": "3.4.4",
  "updatedAt": "2022-01-06T03:23:49.548Z",
  "devdoc": {
    "kind": "dev",
    "methods": {},
    "version": 1
  },
  "userdoc": {
    "kind": "user",
    "methods": {},
    "version": 1
  }
}